:10000000FC050020351C00009F1300009513000024
:1000100097130000991300009B13000000000000DC
:10002000000000000000000000000000A11300001C
:100030009D13000000000000A3130000C515000080
:10004000A5130000A5130000A5130000A5130000D0
:10005000A5130000A5130000A5130000E115000082
:10006000A5130000A5130000A5130000A5130000B0
:100070006D140000A5130000A51300002915000051
:10008000A5130000A5130000A5130000A513000090
:1000900001150000A9130000A5130000A51300001E
:1000A000A5130000A5130000A5130000A513000070
:1000B000A5130000A5130000A5130000651500009E
:100400000000000000000000FFFFFFFFBE1BFFFF19
:1004100013B5441EE4B21423634304480068C318B0
:10042000187C00945C680323A04716BDCCFEFF1F18
:1004300008B5044B18701423584300F0B3FD024B69
:10044000186008BDC8FEFF1FCCFEFF1F37B5031C98
:100450000D1C0020FF2B0DD0013BDBB214245C43AC
:10046000054909680C19207C0093111C64682A1C3A
:100470000223A0473EBDC046CCFEFF1F13B5441E5D
:10048000E4B21423634304480068C318187C009442
:100490005C680423A04716BDCCFEFF1F421ED2B2EB
:1004A000142313B5534305490968CB18187C002160
:1004B00000925C680A1C0523A04716BDCCFEFF1FF6
:1004C00030B50A4B0A4A1B6814780022A2420BD0AE
:1004D0005D680132854204D11D7C8D4201D1D0B2CC
:1004E00003E0D2B21433F1E7002030BDCCFEFF1F91
:1004F000C8FEFF1FF0B5061C85B0101C01910292CA
:100500000393FFF7DDFF011E01D000203AE0FFF763
:10051000D7FF071EF9D0142545431B4B143D1B681C
:100520005D193388002B13D0039800F03BFD041CA9
:10053000A8600DD03388181C009300F033FD00280C
:10054000E3D0009B20606060A060C018E060E382A0
:100550007388002B11D0039800F024FD041CE86080
:100560000BD07688301C00F01DFD0028CDD0206017
:100570006060A0608019E060E682029B381C6B60BE
:10058000019B2B7405B0F0BDCCFEFF1F07B5002802
:100590000ED0002103280FD1108901AB12681880FA
:1005A00059801178181C054A1823FFF7A3FF04E0AF
:1005B000101C00F02DFA00E0081C0EBDDD06000046
:1005C000F7B520230090194201D0137001320807BB
:1005D00004D53023137078235370023240230B402C
:1005E0009C46CBB21026019307230E4019400F1CE6
:1005F000042900D904277F00FFB2141C3B1C013BD7
:10060000DBB2FF2B11D000989D00E8400F21051CA4
:100610000D40291C3031392904D960462731002882
:1006200000D0203921700134E9E70199D0194BB28B
:10063000002B04DA0D2303700A2343700230002ECE
:1006400000D10670FEBDC9B2031C8218934202D0CD
:1006500019700133FAE7704710B50023934203D0B5
:10066000CC5CC4540133F9E710BDF7B5038A041C10
:100670000E1C4768151C9A4200D91D1CADB2002DF6
:1006800028D0E3687A1962609A4215D3DB1B9BB2CB
:100690002268E91A009353186360019100F026FF65
:1006A000002E12D0391C009A301CFFF7D5FF009B9A
:1006B0002168F018019A06E000F018FF002E04D01F
:1006C000301C391C2A1CFFF7C7FF00F007FF238AE4
:1006D0005B1B238200F00AFF281CFEBDF8B51D1C21
:1006E00006AB1B780F1C1421161C4B430B4A1268D7
:1006F000D3189C6800F0F2FE042D03D0052D07D11D
:10070000248A06E0201C391C321CFFF7AEFF03E0F0
:10071000002400F0EBFE201CF8BDC046CCFEFF1FFD
:10072000F7B5041C151C0F1C00F0D8FE218A628A44
:10073000E38A88184019984202DD5D1AAD1AADB2FD
:10074000A168AA18628201914A19E168A2602E1C70
:100750008A4205D3D31A2268A3609B1AEE1AB6B256
:1007600000F0C4FE0198391C321CFFF775FFB5423A
:1007700004D0B919AA1B2068FFF76EFF00F0AEFE87
:10078000638AA28AAB4206D1238AEB189A18002307
:100790002282A38202E0AA18A2825B1B638200F07D
:1007A000A5FE281CFEBD0000F8B502784378041CA5
:1007B0000F1C00259A421ED186781048311CFFF785
:1007C0007FFEA84217D014220D4B50431B68181807
:1007D000E37814388068032B04D1C58A038AED1AA4
:1007E000ADB208E0211C3A1CFFF79AFF0421051C5A
:1007F00070B200F033FD281CF8BDC046DD060000D5
:10080000CCFEFF1F08B5031E04D1081C111CFFF706
:10081000CBFF05E00020FF2B02D0181CFFF7F8FDEE
:1008200008BD38B5041C031C1A1B0133581E05787B
:1008300092B2002DF8D1281C002A03D0081C211CDC
:10084000FFF7E0FF38BD000008B5024B1978FFF74D
:10085000E8FF08BDC0FEFF1F1FB56A46FFF7B0FEE8
:100860006846FFF7F1FF05B000BD10B5031C0C781A
:10087000181C1C700A78013352B20131002AF6D1DB
:1008800010BD000008B5044B04481A78044B1A70D8
:10089000FFF7DAFF08BDC046F0FFFF1F8020000011
:1008A000C0FEFF1F38B5051C242000F07BFB041E92
:1008B00001D100200BE0281C00F074FB2060002810
:1008C000F7D04319A0606060E360E582201C38BD6A
:1008D00038B54D1CEB7F0C1C9A061AD40A8A002AE4
:1008E00003D140229343EB7713E04B68197800F073
:1008F000DBFEEB7F40221343EB776368E268013352
:100900006360934201D323686360238A013B23829F
:1009100001E000F0E3FE38BDF7B5019308AB071C1A
:100920000D1C141C1E7800F0D9FD01980238032814
:1009300064D8354B142201F099FB0237582B14224E
:1009400056431B689A19E90401D5D66800E09668F9
:10095000002C1BD0E20703D5381C00F0FDFE04E09C
:10096000A30702D5381C00F01BFF610703D5381C14
:1009700000F0C4FE04E0220702D5381C00F0E2FEBD
:10098000630603D57F231D40B31CDD77B58B36E0AE
:1009900056431B689A1993681C4AD969114201D0C1
:1009A0001D8B2CE01D8A2AE056431B689A19D668D5
:1009B000002D06D1F28A338AD31AA3421FDB9DB2DF
:1009C0001DE000F093FD291C221C301CFFF7A8FE3F
:1009D000051C00F083FD731CDA7F60231A420ED1E0
:1009E000381C311CFFF774FF09E056431B68291CB3
:1009F0009A199068221CFFF738FE03E0002500F0EA
:100A000075FD281CFEBDC046CCFEFF1F8080000087
:100A1000F7B5294E041C0F1C017A301CFFF750FD5E
:100A2000051C0190002D02D07A0707D442E0291C52
:100A3000FFF746FD051C0198002D3BD014266E43A0
:100A40001E4B143E1B689E191B4B7360BA0709D5D9
:100A5000237AE0880193FFF725FF019AF060930065
:100A6000174AD050FB0707D5A088FFF71BFF237A52
:100A7000144A9B00D050B060237A114A9B00D3588F
:100A8000002B01D02268DA61237A0E4A9B00D358EA
:100A9000002B08D0A27A0233DA77237A094A9B0026
:100AA000D3582268DA61237A211C3374207A00F04B
:100AB00081FE281CFEBDC04619090000CCFEFF1FA8
:100AC000D4FEFF1FD0FEFF1F08B5104B8900CB5886
:100AD0001A8AD98A91420BD9996801321A82087010
:100AE0009A68D96801329A608A4201D31A689A607A
:100AF000074AD969114207D10233D87F002803D0B1
:100B000040B2042100F0AAFB08BDC046D0FEFF1F82
:100B10008080000008B5034B8200D158FFF7D8FE53
:100B200008BDC046D4FEFF1F08B500F0A7FD08BDF4
:100B300008B56C2000F076FB002801D100F094FF8E
:100B400008BD0000F8B53D4B3D4E1A68041C01324B
:100B50001A6033780D1C0133DBB233703B2B4DD957
:100B6000384F3B780133DBB23B703B2B39D9364BE6
:100B70001A780132D2B2172A01D81A7024E0002262
:100B80001A70324A3248117803780131C9B21170B3
:100B90000133DBB2062B01D9073BFAE703701D29AD
:100BA00007D12C4B1978022903D10121117003229E
:100BB0001A702A0708D5E368002B05D000F08EFCD8
:100BC000E268904700F092FCAB0608D56269002A03
:100BD00005D000F083FC6369984700F087FC002390
:100BE0003B70AA0708D56368002B05D000F076FC9F
:100BF0006268904700F07AFC00233370EB0508D55B
:100C0000A268002A05D000F069FCA368984700F0AC
:100C10006DFCAA0508D52368002B05D000F05EFC0A
:100C20002268904700F062FC2369002B05D000F099
:100C300055FC2369984700F059FCF8BDD8FEFF1F0A
:100C4000DDFEFF1FDEFEFF1FDCFEFF1FC2FEFF1FDB
:100C5000C1FEFF1FC3FEFF1F0D4B1B78C3720D4B60
:100C60001B8883800C4B1B7883710C4B1B78C371E2
:100C70000B4B1B7803720B4B1B7843720A4B1B7890
:100C800083720A4B1B680361802303737047C0465D
:100C9000DDFEFF1FC4FEFF1FC3FEFF1FC2FEFF1FBE
:100CA000C1FEFF1FDCFEFF1FDEFEFF1FD8FEFF1F81
:100CB000F0B58C46002801D1414B1960414C624689
:100CC0000423611E89B28D070DD13F4DAA420FD971
:100CD0003E4E02339219DBB2062B02D80134A4B285
:100CE000EFE7073BF7E73A4DAA4204D8002500E0BA
:100CF0000125002408E0374901335218DBB2062BE6
:100D0000ECD9073BFAE70224002D0CD0012C0AD1C4
:100D1000314EB24217D9314C1D331219DBB2062BBA
:100D2000F1D9073BFAE72E4E2E4F365D7743BA4294
:100D300009D9D21BF318DBB2062B01D9073BFAE71E
:100D40000134E4B2E0E70134E4B20127254DAA42C0
:100D500009D9254D01375219FFB20133DBB2062BF9
:100D6000F4D9073BFAE70025204EB24204D9204EC1
:100D700001359219EDB2F7E700263B2A03D9013677
:100D80003C3AF6B2F9E7D2B2002809D08180614638
:100D90008471C7710372C2728672457201610DE07F
:100DA000144804701448077014480370144B1A70E8
:100DB000144B1E70144B1D70144B1980F0BDC046AF
:100DC000D8FEFF1FB30700000085E201007B1DFE77
:100DD0008033E10180CC1EFE803B260080C4D9FF19
:100DE000872000008051010080AEFEFF0F0E000042
:100DF000F0F1FFFFC3FEFF1FC2FEFF1FC1FEFF1F7A
:100E0000DDFEFF1FDEFEFF1FDCFEFF1FC4FEFF1F17
:100E1000F0B587B0059181880422039136490023FB
:100E2000039C0326A14214D24C1C314207D1334DFE
:100E300002325B19D2B2062A09D9073AFAE7304FD3
:100E40000132DB19D2B2062A01D9073AFAE7211C8E
:100E5000E6E70E4081794C1EE4B2002C0BD0294D00
:100E6000013C655D284FAA186F43DB19D2B2062AF0
:100E7000F3D9073AFAE7002E09D1022907D9224D02
:100E800001325B19D2B2062A01D9073AFAE7C679CC
:100E9000771EFFB2D219D2B2062A01D9073AFAE771
:100EA000447A0194857A0495C47A019DE120000179
:100EB0004543AC46049D3C206843029060440519BC
:100EC00011484743EF19F818059B002B12D00F4B20
:100ED000039D019F1D800E4B19700E4B04991E70CF
:100EE0000D4B1F700D4B19700D4B1C700D4B1A7074
:100EF0000D4B186007B0F0BDB20700000085E2019D
:100F00008033E1018720000080510100C4FEFF1FF3
:100F1000C3FEFF1FC2FEFF1FDCFEFF1FDEFEFF1F22
:100F2000DDFEFF1FC1FEFF1FD8FEFF1F10B586B0FC
:100F3000041C422301A80373019400F095FC021ED7
:100F4000012A05D1034B6B2014211C6000F0BCF971
:100F500006B010BDE0FEFF1F0E4B13B500221A8035
:100F60000D4B0E4A19600E4B147819601A1C037849
:100F7000A34203D0002B0CD00430F8E74388C918F3
:100F800011606B460733994203D855230B7001312A
:100F9000F7E713BDE8FEFF1FE4FEFF1FC6FEFF1FBD
:100FA000ECFEFF1FF8B50E4F0E4E3B683488051C53
:100FB0001C1903231C4201D09C4304340A4A6319C0
:100FC00012689A420AD92A1C201C0021FFF73BFB19
:100FD0003B68201CE31AED18358000E00020F8BDC6
:100FE000E4FEFF1FE8FEFF1FECFEFF1F084B10B5DD
:100FF0001A68011C131C981A01331C7880B2552CF6
:10100000F9D0002800D11A1C024B9A1A0A8010BD90
:10101000ECFEFF1FFC050000034B1868034B1B6828
:10102000C01A80B27047C046ECFEFF1FE4FEFF1FEF
:10103000044B1868044B1B68C01A044B1B88C01A69
:1010400080B27047ECFEFF1FE4FEFF1FE8FEFF1FAB
:10105000F0B585B00392544F544A002313603B60AF
:10106000534B02901B780C1C2678002E44D09E42D5
:101070003BD1231CE51A00260134A657EDB2002E01
:10108000F8D1142068430430FFF78CFFEB43E318DA
:1010900038600193371C019C6278002A23D0029BA0
:1010A000196800291BD00C78A24216D15A68016039
:1010B00042601A890281002A01D00136F6B25989AC
:1010C00041819A8982819B7BC373002901D1002AC7
:1010D00001D00137FFB2143001E01033E0E7019B8B
:1010E00001330193D7E7026008E001340022A256E1
:1010F000002AFAD10134B7E7371C351C2A4C236883
:10110000002B49D0002F2CD00C207843043080B223
:10111000FFF748FF254A2368106094461A68002AA2
:101120001AD05A89002A07D022498A4201D10022C6
:101130005A815A89426003E09989002901D04160AF
:1011400001224168002901D001214172002A01D009
:1011500003600C301433E1E70C235F436346C01B8C
:10116000186003997018C0B2FFF762F9002E13D00F
:1011700024682268002A0FD02389002B0AD003207C
:101180000121221CFFF702FA002801D0A07301E020
:10119000FF23A3731434ECE7074B00221A6000F01E
:1011A00053FA281C05B0F0BDF0FEFF1FF8FEFF1F2C
:1011B000C6FEFF1FFFFF0000F4FEFF1F184B37B5F0
:1011C0001C682368002B29D0E27B0D231A4223D010
:1011D00000F084F9A389002B02D1E37BD90716D450
:1011E000237C002B0ED000256A46157055702168AF
:1011F000281C0A7869468A700522CD700B71FFF7AA
:1012000001FB2574E27B0A23134000D1E37300F055
:101210006DF9201C626890471434D2E737BDC04690
:10122000F0FEFF1F38B50C4B051C1C6800F056F98A
:101230002368002B0DD0E17B0D22114207D01B78D3
:101240005BB2AB4203D000F051F9012002E014344C
:10125000EEE7181C38BDC046F0FEFF1F38B5174B2F
:101260001C682368002B27D01B785BB2834221D1F6
:10127000002918D1124B1D68002D14D02B68002BAB
:1012800011D09C420DD100F029F9A389002B03D085
:101290000C4A12689B186B600023E37300F026F978
:1012A0000AE00C35EAE74A0702D5E37B1A0703D4C4
:1012B000E17301E01434D4E738BDC046F0FEFF1FEF
:1012C000F8FEFF1FF4FEFF1FF8B5194B0E1C1C683B
:1012D000171C002C2BD0174B1D682B68002B26D019
:1012E0001B785BB2834220D12368002B1FD09D4224
:1012F00019D100F0F3F8EB7B02229343EB732772D2
:10130000002F04D1AE81002E04D1667208E0002EB9
:1013100000D10126084B1B68F61801236660637232
:1013200000F0E4F803E00C34DEE71435D5E7F8BD4F
:10133000F8FEFF1FF0FEFF1FF4FEFF1F134A144BC1
:1013400011681B68013110B5101C1160002B1CD0F6
:101350001A68002A19D0597A002914D001685C68EB
:10136000A14210D1D17B8C0705D40C0701D40421F4
:10137000D173197A11749289002A03D059688A1896
:101380005A6000E05A720C33E2E710BDF4FEFF1F12
:10139000F8FEFF1F704770477047704770477047EF
:1013A00070477047704700000C4A10B513680C4C2A
:1013B000002B0AD0013B1360002B06D12368DA070B
:1013C00003D5802292001343236006482168FFF76B
:1013D000B9FB2268044B1340236010BD00FFFF1FC0
:1013E000FCFEFF1F50FFFF1FFFFCFFFF10B51B4A55
:1013F0001378980604D51A4B05201B7859062BD470
:10140000184B01201B68590726D5154B47211C781E
:1014100002200C4220D01178880604D519780720C4
:101420000140022918D012780120910714D51A78AA
:1014300007231340042B0FD10B4B1A7803231340BF
:10144000834208D0002B04D00A20032B04D00120B3
:1014500002E0082000E0092010BDC04600E007407F
:1014600001E0074010ED00E002E0074070B5154DC7
:10147000154C2B6822681A4091020BD5134A144E62
:101480001078336800211840FFF71EFB2B681A0301
:1014900000D5326822681340190202D50020FFF7F8
:1014A00039FB2A682168084B0A40510208D519689F
:1014B000084A0A401A60084B0122196891431960D2
:1014C00070BDC046044005400840054068FFFF1F4E
:1014D0000C400540FFFFBFFF08FFFF1F72B6024B25
:1014E0001A6801321A6070474CFFFF1F034A1368E5
:1014F000013B1360002B00D162B670474CFFFF1F09
:1015000010B5074B074C00221A60A368934205D020
:10151000FFF7E4FFA3689847FFF7E8FF10BDC04658
:1015200008D0034050FFFF1F0B4B37B51F221A6036
:101530000A4B1D68002D0DD0094B01AC1B682380A0
:101540000023A3700123E370FFF7C8FF201CA84706
:10155000FFF7CCFF37BDC04600B0034004FFFF1FBC
:1015600010B00340F7B5134B1C681F1C002C1FD094
:10157000114E1C6001252C4215D032680192FFF7F4
:10158000ADFF0E4B0E4A9B199B181B689847019B99
:10159000B02212031A4080231B039A4200D13D60FF
:1015A000AC43FFF7A3FF6D000436002CE3D1DAE76C
:1015B000F7BDC046A0A0044000A004406CFFFF1F80
:1015C0000060FBBF08B58022044B92041A60FFF74D
:1015D00085FFFFF7B3FEFFF789FF08BD04ED00E0CC
:1015E000F8B5164B1C78E4B2002C26D00026012555
:1015F00025421DD0AC43072E0EDD331C083B0122D3
:101600009A40012A04D0202A08D1FFF779FF05E08B
:101610000B4B1A681A6001E0084B1D70094BB200B1
:10162000D758002F04D0FFF759FFB847FFF75EFFE8
:101630006D000136EDB2002CDAD1F8BD03C00740D1
:10164000000004400CFFFF1F074B084A1360084AC4
:101650001360084BC022196812060A431A60064B31
:1016600007221A607047C046FF9E240014E000E085
:1016700018E000E020ED00E010E000E0074B1A6801
:101680000C231A4204D0064B55221A60AA221A6073
:10169000044B802212011A607047C046008104404A
:1016A000048104404C0000F80A4B30B580245D688A
:1016B0002404012225420AD0074D824028680243B3
:1016C0002A605A68D9609A6814439C600022101CF2
:1016D00030BDC0460040054008FFFF1F054B80227B
:1016E0009968D2030A439A609968034A0A409A604B
:1016F0007047C04600400540FFFF7FFF00280ED125
:101700000A4B80221968D2000A431A60084A094B22
:101710001A60094B80221A70084B52011A60084B5C
:101720008022996812030A439A6070473880044007
:101730000302000004A004400CE400E000E100E02B
:1017400000400540024B034A99680A409A6070477E
:1017500000400540FFFF77FF00280ED10A4B802292
:101760001968D2000A431A60084A094B1A60094BEB
:1017700080221A70084B52011A60084B9022996817
:1017800092030A439A6070473880044003020000C5
:1017900008A004400CE400E000E100E00040054047
:1017A000024B034A99680A409A607047004005401E
:1017B000FFFFDBFF70B50D1C002846D1234B8022B4
:1017C000196852030A431A60214B80221978524249
:1017D0000A431A701F4B204A186880210240C9042E
:1017E0000A431A606A7A9C230C2A02D81B4B5200C7
:1017F000D35A1B4C2268510BF022490312050A43AD
:1018000013432360FFF76AFEA268C0231B04134042
:101810002A681449D00701D57F2000E0FF20087016
:1018200006210A4205D0510701D5032200E0022219
:101830001343A360FFF75AFE2B68094EDA0604D55E
:10184000306880239B010343336070BD38800440BF
:101850001840064004800440FFFFFFF338210000D9
:101860000040054068FFFF1FF8B5037B041CF02211
:10187000181C904301380A2800D9B6E000F0F6FBA6
:1018800008064A36393CA7272B31240000252EE0D4
:10189000574B8022196892050A431A60554B002065
:1018A0001860227B1E1C544D910605D52169FFF757
:1018B000FFF923692B6004E0201C0121FFF7A8FA3F
:1018C00028601023336090E04C4B19680AE0201C1C
:1018D000FFF7C2F989E0201C0021FFF799FA206187
:1018E00083E02169201CFFF7E3F97EE00125013543
:1018F00000E0002501350BE0414A04211068202555
:10190000884310601D403F4E5BD022690025326045
:10191000013500E00025691C227B394B7F2A06D95E
:1019200001228A40111C1A688A431A605DE0304A1D
:1019300080201568800528432E4D10602A68D60740
:1019400003D52D4800222A6002602F4A26688800AD
:101950008650002218682A6001228A4002431A60D9
:101960002A4A2B4B022914D12348264907680E68BE
:10197000B74201D900680860086820490860254915
:10198000C0200870802149031160196804220A43AD
:1019900006E02149C02008708021890311601022CF
:1019A0001A60237B5A0609D51C4B1D4A1E6800206D
:1019B00032401A60104B1968FFF77AF910232B6038
:1019C00013E0201C291CFFF723FA3060A0E7637A9C
:1019D000E12212015A43A37A3C214B43D218E37A05
:1019E0000021D2180F4B1A6096E70020F8BDC046C0
:1019F0003C80044014D0034000D0034008D0034092
:101A0000FCFEFF1FECFFFF1F50FFFF1F00E100E087
:101A10001CD0034014E400E015E400E00070044032
:101A2000FFFFF3FF00FFFF1F0C4B30B5C018000392
:101A3000002A03DA0A4B03241A4000E0094C012370
:101A4000002909D0194204D005689943A5431543DC
:101A5000056004305B00F3E730BDC0464900040078
:101A60008BF8FF7F77070000F8B51A4C042326682F
:101A7000194D1E4218D0194A1268002A11D12A683D
:101A8000D00211D5164A80211068C90501431160A2
:101A9000144980200F68C001384308601268D001E3
:101AA00002D522689A43226030BFFFF79FFC0728C7
:101AB00004DD0D4B00201968FFF7FAF826602B684B
:101AC000D90204D5074B094A1F683A401A60FFF74C
:101AD0000DFDF8BD10ED00E03880044008FFFF1F49
:101AE000044005400040054000D00340FFBFFFFF19
:101AF00070B5E022061C031C96430A2E50D8301CF9
:101B00002A4D2B4C00F0B2FA060A1318212828356A
:101B10003A3D41006C200021FFF7A0FB00232B7011
:101B20002368042293432360002E39D13CE0214BEB
:101B30003F2219780A4005E01E4B3F2219780A40DF
:101B400040210A431A70002314E01A4B3F221978EF
:101B50000A4080214942F4E72A78C02313432B70BE
:101B600023680422934323606C200021052E17D1A3
:101B700018E082232B70236804220FE01F22934376
:101B800007E01F229343012202E01F229343032216
:101B90001343084A137004232B70226813432360F5
:101BA0006C200121FFF75AFB70BDC04601E00740E1
:101BB00010ED00E002E00740014A024B1A60FEE728
:101BC0000400FA050CED00E010B5124A124900239A
:101BD000891A8B4204D01148C05CD0540133F8E715
:101BE0000F49104A914204D10F4A10490023891A23
:101BF00008E00F480023801A8342F5D0CC5CD4540F
:101C00000133F9E78B4204D0D0180024047001336B
:101C1000F8E710BDC0FEFF1FC7FEFF1F9C2200009B
:101C20001004000010040000C8FEFF1FBC000020CC
:101C300080200000304A38B511688023DB000B4358
:101C400013602E4B212019681D1C814319602C48FC
:101C50002C492D4B08602D4908680121014000D016
:101C60000C2119602A4B0821197011688023DB00B0
:101C70000B438024136024010120A222211C8240F6
:101C8000FFF7D2FE234B1A6822431A602B68042206
:101C90001C43214B2C601A70204BA02219780A4358
:101CA0001A701F4B00221A701E4B1A780C231A420E
:101CB000FAD11D4B802252021A601C4A1C4B1A603A
:101CC000FFF782FF1B4B2A221A701B4B1B4A136023
:101CD0001B4A13601B4B1A6805221A6000F038F982
:101CE00019481A49FFF738F919481A490122FFF72C
:101CF000AFF9FFF763FAFCE73880044054F00F4077
:101D00000301210080A004400081044050F00F40F6
:101D100002D0074040F00F4001400640005006400E
:101D20000040064006400640448004400000000099
:101D300008ED00E000E00740FFFFFF0014E000E0D6
:101D400018E000E010E000E094200000BC0000205B
:101D5000A42000009C20000008B5044B044918682A
:101D60004022FEF779FC002008BDC046F4FFFF1FAB
:101D70005421000030B5164A85B001AB126800242A
:101D80001C72011C107B58725268201C01920822A0
:101D90009A808022DA8061229A721A1CFEF7F6FB82
:101DA0000C4D2870A04210D0221C0521FEF74EFBDE
:101DB000019A520609D50849221C2878FEF746FBED
:101DC00028788121221CFEF741FB287805B030BD20
:101DD000F4FFFF1FF0FFFF1F04040000F0B54D4C9F
:101DE00093B02568877B002D5CD1FFF715F9019032
:101DF000FFF71EF9061C281CFFF798F84020FFF794
:101E0000D1F8454B1860281CFFF7A6FF80231B0262
:101E1000984201D0012323600320FFF7ABFF002885
:101E200075D03E4B3E481A783E4B1A70FEF70CFDBB
:101E30003D48FEF709FD3D48FEF706FD002000F095
:101E400095F83B48FEF700FD3A48FEF7FDFC3A4B9B
:101E50008C211868394BC018FEF7FEFC3848FEF795
:101E6000F3FC019B0A219E1BB0B2FEF7F5FC35483E
:101E7000FEF7EAFCFFF7D0F88A21FEF7EDFC3248C6
:101E8000FEF7E2FC02A8FFF7B1F88C21FEF7E4FCB4
:101E900008E06B46D87A1A7B00280BD1832A01D13F
:101EA000FFF78AFE381C02A90522FEF7E7FA002890
:101EB000EFD117E001280FD1D2B2B72A06D0DD2A20
:101EC000F0D12368082BEDD12060EBE7FFF710FE7F
:101ED0001E48FEF7B9FCE5E792B2381C02A9FEF7EE
:101EE000CDFADFE7226837231A4210D00B4C207856
:101EF000FEF7D4FA00280AD002A920784022FEF783
:101F0000BDFA011E03D002A800F024F8F4E713B0D4
:101F1000F0BDC046F8FFFF1FF4FFFF1FF0FFFF1FDB
:101F200094210000C0FEFF1FA8210000BB2100007B
:101F3000BE210000C2210000E4FEFF1F000200E0FD
:101F4000D3210000E2210000E9210000FF21000070
:101F50007047000008B50A1C0349031C0878191CC7
:101F6000FEF750FC08BDC046F0FFFF1F70B52E4BBA
:101F7000041C1A7852B2002A30DB1A7802210A4275
:101F80002ED11878042210422CD1187885062BD433
:101F90001E78012040251B78064203D02B4225D015
:101FA000224934E02B4223D1214B1D78054221D117
:101FB0001878084220D1197811421FD11A781107D8
:101FC0001ED41A1C1B78DD061CD4137899061BD46A
:101FD00013785BB2002B19DA164918E0164916E09F
:101FE000164914E0164912E0164910E016490EE0B1
:101FF00016490CE016490AE0164908E0164906E0C1
:10200000164904E0164902E0164900E01649002C82
:1020100004D1081CFEF718FC201C04E0201CFEF76D
:1020200024FC001BC0B270BD00F007408F220000EE
:1020300001F00740112200006F2200004222000040
:102040007D2200005622000088220000622200004B
:10205000782200004F2200003922000018220000E0
:102060005B220000262200006B22000002B47146B1
:1020700049084900095C49008E4402BC7047C046CB
:1020800048656C6C6F21001F1C1F1E1F1E1F1F1E2A
:102090001F1E1F00010000040000000001575961CD
:1020A0006C0000001F210000290B00000000000050
:1020B0000400010024210000DD1D00004500020095
:1020C0000000000028210000310B0000000000008B
:1020D000000001003121000085080000000004001C
:1020E00008000000000000000000000000000000E8
:1020F0000000000048544D004A5047004749460040
:10210000504E4700435353004A530042494E005437
:1021100058540049434F00424D50003F3F3F005745
:10212000646F6700617070006C6F77506F776572D5
:102130000059207461736B0010278813C409E204EE
:1021400071029900D0009C004E0034001A000D006E
:102150000C000000210078002000000017005D60E6
:10216000070000000041444D494E00202075546195
:10217000736B6572264B494E45544953000000006D
:1021800000000000000000000000501403030000E5
:10219000000000000D0A0A48656C6C6F2C20776FF8
:1021A000726C642E2E2E20004652444D2D4B4C3026
:1021B000335A204B696E6574697300205B005D0DB6
:1021C0000A00537461746963206D656D6F727920C4
:1021D0003D20004F53204865617020757365203D98
:1021E00020002066726F6D2000496E697469616C11
:1021F00020737461636B206D617267696E20005299
:10220000544320416C61726D2066697265640D0AE9
:102210000074616D70657200486F7374206465624C
:102220007567676572007065726970686572616C68
:10223000206661696C75726500536F6674776172B0
:102240006500556E646572766F6C74616765004CED
:102250006F636B75700057444F4700455A504F529B
:10226000540045787465726E616C003F3F3F0050CA
:102270006F7765722D6F6E004A54414700436C6F53
:10228000636B206C6F73730057616B6575700057DB
:0C229000616B65757020726573657400E9
:07229C00FF040101B207017C
:0400000300000410E5
:00000001FF
