S02B00002E2E5C4170706C69636174696F6E735C755461736B657253657269616C426F6F745C4B696E65746946
S10B0000F0FF02206D25000051
S11304000000000000000000FFFFFFFFBE01FFFF2F
S113041013B50138C3B20648006803EB830400EB4C
S11304208404207C009364680323A04702B010BDB9
S11304301002FF1F08B5054B187000EB8000800008
S113044001F0CAF8024B186008BD00BF0C02FF1F80
S11304501002FF1FFF2837B50D460FD00949431E70
S1130460DBB2096803EB830401EB84041146207CAE
S1130470009364682A460223A04700E0002003B0EA
S113048030BD00BF1002FF1F13B50138C3B20648C8
S1130490006803EB830400EB8404207C009364680D
S11304A00423A04702B010BD1002FF1F084A13B571
S11304B00138C3B2126803EB830102EB810200210D
S11304C0107C0093546805230A46A04702B010BD6F
S11304D01002FF1F13B50A4607490138C3B2096861
S11304E003EB830401EB84040021207C0093646803
S11304F00623A04702B010BD1002FF1F70B50C4BBD
S11305001E780C4B1B6800221433D4B2B4420DD2B3
S113051053F8105C854206D113F8045C8D4202D175
S1130520601CC0B270BD01321433EEE7002070BD10
S11305300C02FF1F1002FF1F2DE9F74F82461046E1
S1130540894690469B46FFF7D9FF014608B1002033
S11305503FE0FFF7D3FF07460028F8D06FF01303FE
S1130560142616FB00361C4B1B681E44BAF80030D8
S1130570A3B1584601F030F80446B06070B1BAF83F
S113058000300193184601F027F8019B0028DED0C3
S1130590C51820606060A060E560E382BAF80230AC
S11305A093B1584601F018F80446F06060B1BAF807
S11305B00250284601F010F80028C8D043192060E2
S11305C06060A060E360E582C6F8048086F810905D
S11305D0384603B0BDE8F08F1002FF1F032807B5AB
S11305E005D0052811D1104600F0EEFB0EE013896A
S11305F0ADF804300023ADF806301368054A1978C5
S113060001A81823FFF798FF00E0002003B05DF86D
S113061004FB00BFAD060000C9B202440346934286
S113062002D003F8011BFAE7704710B50023934288
S113063003D0CC5CC4540133F9E710BD2DE9F84371
S1130640058A4768AA4238BF154604460E463DB39C
S1130650C3687A199A42426015D3C7EB03081FFA9C
S113066088F80368C8EB05094B44436001F09CF922
S11306708EB1394642463046FFF7D7FF06EB0800F5
S113068021684A4605E001F08FF926B13046394623
S11306902A46FFF7CAFF01F07FF9238A5B1B2382F6
S11306A001F082F92846BDE8F88300002DE9F843FB
S11306B0DFF868809DF820701D4607EB8707D8F89F
S11306C00030BF003B44894616469C6801F064F93B
S11306D0052D0AD0062D0AD0042D16D120464946F0
S11306E03246BDE8F843FFF7A9BF258A10E0012E82
S11306F003D1D8F800301F44FC6844B12368A360D8
S113070063600023258A238202E0002500E0254659
S113071001F04AF92846BDE8F88300BF1002FF1F24
S11307202DE9F041044615460F4601F035F9218ABA
S1130730628AE38A88182844984202DD5D1AAD1A59
S1130740ADB22A44D4F808806282E26808EB050658
S11307509642A66006D3F31A2668A3609E1BAE1BBE
S1130760B6B200E02E4601F01FF940463946324643
S1130770FFF75BFFB54204D02068B919AA1BFFF745
S113078054FF01F009F9638AA28AAB4206D1238A95
S11307902B441A4400232282A38202E02A44A28228
S11307A05B1B638201F000F92846BDE8F08100007C
S11307B070B5027843789A4204460E4621D1857872
S11307C011482946FFF79AFEE0B16FF01303142293
S11307D012FB00300D4B1B681844E3788068032B30
S11307E004D1C28A038AD01A80B270BD214632462F
S11307F0FFF796FF0421044668B201F031F8204661
S113080070BD002070BD00BFAD0600001002FF1FC8
S113081030B528B90846BDE830401146FFF7C8BFD7
S1130820FF2803D0BDE83040FFF7F2BD002030BD03
S113083010B5002304469AB20133E01810F8010CF5
S11308400028F8D12AB108462146BDE81040FFF738
S1130850DFBF104610BD0000014B1978FFF7E8BF59
S1130860F001FF1F07B5002370B18DF800308DF83B
S113087001308DF8020001238DF80410684605212B
S11308808DF80330FFF794FF03B05DF804FB30B537
S11308900023934208D0C45C0133CD1815F8015CE1
S11308A0A542F6D0012030BD002030BD03460A78B1
S11308B003F8012B11F9012B0AB11846F6E770472A
S11308C040B1836993F82820501C83F8280003EB77
S11308D04203D983704711F0010F30B500F10204CF
S11308E008D01346057823F8025B407845EA0025D2
S11308F015801A4611F0020F04F1020008D01346C5
S1130900257823F8025B647845EA042515801A46A5
S11309104B0705D503781380417843EA01231380FC
S113092030BD00002DE9F0419846374B1B682C245C
S113093004FB08340646638B002B62D1069B258B8F
S1130940DB68A2838A4234BF17460F46AF4238BFE2
S11309503D466783E5821860069B9A685968536828
S113096043F08000294B4FEA054E0EEA030303438C
S11309700B605368E06883F040035360936883F02E
S1130980400393602946FFF79BFF6660628BE38A0E
S11309909A4206D9E3683BB19B6993F82830012B4E
S11309A002D9608BBDE8F081404606A901F026FB20
S11309B00028F6D1069BDB682E447F1B258B1E6026
S11309C0069B9A6858685168BFB2AF4238BF3D462B
S11309D041F080030D494FEA054E0EEA0101194327
S11309E001605368E06883F040035360936883F0C8
S11309F0400393602946FFF763FFE38A2B44E382B5
S1130A00C4E70020BDE8F0811C02FF1F0000FF03C3
S1130A102DE9F04F87B007460DF116008846914640
S1130A201E4602F045FE00244FF0010B0178BDF88C
S1130A301620521A92B2ADF8162043780192042B74
S1130A4010D0052B20D0022B45D14379BB4205D0D1
S1130A50D7F1010438BF0024002C3CD001244FF00E
S1130A60000B38E0002C36D0B8F1FF0F02D08378A9
S1130A70434530D1B9F1FF0F02D0C3784B4529D19A
S1130A80002E31D0022426E02CB326B3A51ED5F1C6
S1130A90000C5CEB050C35462B68B3B19A7890F8E2
S1130AA002A082EA0A0252060DD1BCF1000F12D153
S1130AB093F805C01B7943EA0C23B5F804C09C45A0
S1130AC009D2AB8007E00835E6E7BCF1000F02D09D
S1130AD0286000E00324019B0844002BA6D1BBF14D
S1130AE0000F0CBF3046002007B0BDE8F08F37B5CB
S1130AF0836993F824300546BBB1028A8A4214D82C
S1130B0000248DF8023001238DF803302046DD23C4
S1130B10694605228DF804308DF800408DF80140B7
S1130B20FFF776FEAB6983F8244003B030BD0000C4
S1130B30F7B5104A044680781268E77866790B4660
S1130B402C2500F07F0101FB05252279009520F07A
S1130B507F00384342EA062201F086FAE3780BB9B3
S1130B60112303E095F8223043F0010385F8263081
S1130B7003B0F0BD1C02FF1F114B73B51B6800F0DE
S1130B807F012C2501FB05350024EE680094FF202D
S1130B902246234601F068FA85F826406C8385F8DE
S1130BA028401EB133683482B3607360AB6823B1EC
S1130BB000221A821A689A605A6002B070BD00BF9F
S1130BC01C02FF1FF0B58BB00C460AA903AB41F819
S1130BD0203D0646174601F011FAA0B9A56995F81B
S1130BE0263043F0400385F826306068E168029CB3
S1130BF00094091A89B2B94228BF39460A463346D5
S1130C00FFF790FE00E000200BB0F0BD2DE9F041AD
S1130C108AB01C4680460F4615469DF8406000F099
S1130C20BBFEA31E042B00F2C280DFE803F00342E4
S1130C308C39AF00624B05F0040436B21B6806EB36
S1130C408606A4B203EB860664B1F1688B6993F857
S1130C5026305A0600F1AB800B68CA8A4B600A82C0
S1130C6040466DE02B0708D5F3689B6993F826206E
S1130C7022F0400283F826209CE0FC044CBFF36879
S1130C80B368680608D59A6992F82610C90744BF64
S1130C9007F07F0782F824709B6993F8264089E067
S1130CA0474B1B6806EB860603EB8606B3681C8A73
S1130CB080E0434B1B6806EB860603EB8606F6686A
S1130CC0F6B90AA903AB41F8203D404601F096F974
S1130CD0A0B9B8F1000F07D13A4B1B6823B1DA79F8
S1130CE09B7943EA022200E02A46029B009338469D
S1130CF029464346FFF716FE04465BE0344659E0B6
S1130D00B36993F8264014F0010453D037B9F48A38
S1130D10338AE41AAC424CDBA4B24BE000F044FE4C
S1130D202A4639463046FFF7FBFC044600F034FE01
S1130D30B36993F826305A063CD4404631462246DD
S1130D40FFF740FFD8E71E4B1B6806EB860603EB54
S1130D5086063946B6682A463046FFF76FFCB36903
S1130D6093F826305B07044626D500F015FEB369D8
S1130D7093F8262022F0040283F82620B36993F81E
S1130D80250001F00BFA0028F8D013E00C4B36B222
S1130D901B6806EB860603EB86060DB1F36800E0DC
S1130DA0B3681A689A6000245A601C8202E0002426
S1130DB000E03C4600F0F8FD20460AB0BDE8F081B2
S1130DC01002FF1F1402FF1F2DE9F0410546324FA8
S1130DD0A97B324A3C6804301C23FFF7ADFBAE7B91
S1130DE08046B6B12C2306FB0344AB8923836B896D
S1130DF0D90644BF202262845A0603D5628C42F08D
S1130E00800262841B0619D5638C43F0400363841B
S1130E1014E06B7C013303EB830003EB40008000A0
S1130E2080B200F0D9FB08230383AB7C386004460E
S1130E3080F824302946304601F0F0F96FF01303AE
S1130E40142212FB0832164B1B681A44D368E36061
S1130E5013B19C612B89A382AB7B84F82530AB7BD7
S1130E6073B1EB7B63B13868618C2C2403FB0404FD
S1130E7084F82530AB7B84F82730AB8923836184E5
S1130E809368A3601BB19C61AB7C84F824302B680D
S1130E9023604046BDE8F0811C02FF1F0D0C0000DA
S1130EA01002FF1F2DE9F84316462B4ADDF820C037
S1130EB00F4611682C2250430C18628C15061AD563
S1130EC0A568228BAB68D5F80C80B4F818901A4446
S1130ED04245AB8AAA6025BF2A68AA605A1C002230
S1130EE0AA82BCF1000F06D0AA684A44424528BF32
S1130EF02A68CCF800200D5815B9A3683BB911E055
S1130F00384631461A46A847072823D1F5E794F80E
S1130F10240018B140B2042100F0A2FC628CA36842
S1130F20120602D50020BDE8F88394F8262002F0CA
S1130F30040171B9D88A198A411AB14205DB1846ED
S1130F4039463246FFF7ECFBECE742F0040284F842
S1130F5026200120BDE8F8831C02FF1F70B5A0B055
S1130F600E468022002105466846FFF755FB3046B1
S1130F70FF2100226B46FFF74BFD38B300245DF8D8
S1130F80040020B355B91EB98078FFF7F5FD1BE0C6
S1130F9000AB23449988FFF7CBFD15E00D4A837815
S1130FA0126803F07F032C2103FB0123012D93F826
S1130FB026200BBF22F0010222F0020242F00202BC
S1130FC042F0010283F826200834D8E7012020B03B
S1130FD070BD00BF1C02FF1F2DE9F0439446A5B06D
S1130FE00D461E4606282AD8DFE810F0E500580210
S1130FF0520207006202700276029C4B1B682C2787
S113100007FB0C377C8BFD681CBBC5B12C8AC4B1B3
S11310106A68EB689A4202D3E98A521A6A6068687D
S1131020191A89B2A14228BF214600960A4663468E
S1131030FFF778FCAB692846998AFFF758FD00242E
S113104081E2AB6993F8262022F0400283F826203F
S113105079E2FB8AA34273D3002D52D02A8A002A54
S11310604FD0AB6993F82810B3F81EE0012901F1C1
S1131070FF3183F82810C4BF188CD883CEEB020E3E
S1131080AB691FFA8EFEA5F810E093F8282003EB55
S113109042011E314FF0000832B131F8020D804494
S11310A0013A1FFA88F8F7E7C64514D1BEF1000FDC
S11310B006D197F8262012F0300F00F0428215E294
S11310C05B8C5C06B6D5E98A7A838E44A5F810E079
S11310D000966868AAE76B68E9681C448C426C60F7
S11310E002D3EB8AE41A6C606868091AC8EB0E0E26
S11310F089B28E454FF00003B8BF1FFA8EF17B838F
S113110093E73B8BB4FBF3F203FB12439BB2A3B90B
S1131110BB8BA34203D197F8263098060DD5B3684C
S113112071685A6842F088020A605A6882F0400284
S11311305A609A6882F040029A6000247C8302E23A
S1131140E41A3A8BA4B2944228BF1446A5B1AB6901
S113115093F82820D98B012A02F1FF32C8BF188CDA
S113116083F82820C8BFD8832B8A5B1A2B82AB69EB
S11311702846998AFFF7BBFCF98A7A68F3680A441F
S11311801A60B36871685A6842F08000384A2604CD
S1131190324002430A605A6882F040025A609A68F8
S11311A082F040029A6021462846FFF789FBFB8AB9
S11311B01C44FC8243E70A782C4B22F080041F680D
S11311C04FF00008012CA7F81A80994600F0868099
S11311D0022C00F00281002C40F04B814B78092B4B
S11311E074D8DFE803F06E737373733505736A386C
S11311F08B78C87891F8078043EA00208B7943EA1A
S1131200082800F47F43B3F5007F09D0B3F5407F8D
S113121011D0B3F5807F15D104A802F043FA02E09F
S113122004A802F045FABDF81010009642460023C7
S1131230FFF778FB87E1C0B204A902F047FA00285F
S1131240F1D151E13B68002B00F04E81481C42E093
S11312508B78B3758DE0074E897831700020FFF7E5
S11312607DFE044640B1002333703DE11C02FF1FA4
S11312700000FF031A02FF1FD9F8003093F824601E
S1131280002E76D0A91C0DF116000122FFF7CDF92E
S113129075238DF8133002238DF814302046FE2375
S11312A004A907228DF810408DF811408DF81260C2
S11312B08DF81530FFF7ACFA5BE00096A4480121E5
S11312C002E0A448009602210A46B0E73B68002BDE
S11312D000F00A810846B18A0022C8E091F8019022
S11312E0B9F10A0F01F1020045D0B9F10B0F03D097
S11312F0B9F1000F69D15AE0954D2B78002B00F01D
S1131300F380032103AAFFF7E6FA9DF80E40414655
S1131310802204A8FFF780F928782146FF2204AB35
S1131320FFF776FB08F1080804AB434453F8084C74
S11313301CB1A078FFF720FCF4E79DF80E709DF82F
S11313400C602146802204A8FFF766F92878394604
S1131350324604ABFFF75CFB002800F0C58008347C
S113136004AB234453F8080C18B10021FFF7E0FB49
S1131370F5E70324E7E0764D2B78002B00F0B480EA
S1131380022104AAFFF7A7FA28789DF81010224634
S11313904346FFF73DFB002800F0A6802146224685
S11313A0009603304346FFF7BDFA4446CBE0684B52
S11313B01B78002B00F098800221009666480A46AC
S11313C04B46FFF7AFFA4C46BDE03B68002B00F0FC
S11313D08B8008464246B18A49E091F80180B8F111
S11313E0010F3ED8881C04AA2146FFF774FA584B13
S11313F0BDF810001B780BB9002875D12C2300F020
S11314001F0203FB0272B8F1010F92F8263017D1C4
S113141019077FF514AE23F0080382F826303B68E1
S1131420002B3FF40CAE24ACC0B204F8840D00F0E1
S1131430B7FDD9F8003020461B680021042216E0CD
S113144003F0080202F0FF03009622B10221434890
S11314500A46002302E002213F480A46FFF762FAE7
S1131460EDE53B68002B3FD008460322082198474E
S11314701CE03B68002B37D0394C12F0800F18BFAA
S1131480216008460022B18A9847002323600DE0BA
S11314909A8A1AB900926046022305E03369B28A37
S11314A00093604629460123FFF7FCFC04464AE00A
S11314B09B7D33B12B4B1B68CC2193F92400FFF7A0
S11314C0D1F900200146FFF749FDB8E5254B1B681B
S11314D0CB2193F9240004E0224B1B6893F92400E8
S11314E0CA21FFF7BFF9AAE504242CE03A8BB4FB28
S11314F0F2F102FB114292B21ABBB26870685168F1
S113150041F088010160516881F0400151609168A7
S113151081F04001916001216A681444EA686C60BA
S1131520944202D3EA8AA41A6C6000227A830029C6
S11315307FF480AD93F8262022F0400283F8262021
S113154078E57146E8E7204625B0BDE8F08300BFA2
S11315501A02FF1F1802FF1FE6360000E4360000DF
S11315601402FF1F1C02FF1F054B1B682C2202FBE9
S1131570003090F82630194380F82610704700BFD9
S11315801C02FF1F034B1B682C2202FB003090F847
S1131590270070471C02FF1F00F0E6BC0A4B10B581
S11315A000221A80094B0A4A19600A4B1478196000
S11315B01A460378A34202D023B10430F9E74388E2
S11315C01944116010BD00BF2402FF1F2002FF1F39
S11315D0F101FF1F2802FF1FF8B5104A104B1168D4
S11315E01C880C4414F0030F17460E4A1CBF24F049
S11315F00304043412681E4623189A4205460AD985
S11316002A4620460021FFF707F83B68E31A1D44E9
S113161035802046F8BD0020F8BD00BF2002FF1F22
S11316202402FF1F2802FF1FF8B5104A104B05467D
S11316301C8810680444481E044217461E4602D003
S11316404B421C400C440B4A126863199A420AD953
S11316502A4620460021FEF7DFFF3B68E31A1D44BB
S113166035802046F8BD0020F8BD00BF2002FF1FD2
S11316702402FF1F2802FF1F2DE9F047534B544F4C
S1131680914600221A603A60524A1278824698467D
S11316900C78002C49D094423ED10B4693F901407A
S11316A05E1AF6B25D1C0CB12B46F7E706EB86001A
S11316B080000430FFF790FF03463860F04328446D
S11316C02546427832B35146D1F800E0BEF1000F0E
S11316D01ED09EF800C0624518D14A685A600A8933
S11316E0C3F800E01A810AB10134E4B2B1F80AE0A7
S11316F08A89A3F80AE09A81897BD973BEF1000F25
S113170000D10AB10135EDB2143301E01031DBE749
S11317100130D6E71A600AE04B1C1946013391F9EF
S113172000000028F9D11946B2E7254626463B6851
S1131730002B42D055B305EB45008000043080B245
S1131740FFF74AFF224BC8F800001B681A68BAB1B9
S11317505A8942B14FF6FF718A4204BF00225A816E
S11317605A89426002E0998909B1416001214268C5
S11317700AB10122427209B140F80C3B1433E5E787
S113178005EB4505A0EB8500C8F8000004EB090053
S1131790C0B2FEF74FFE84B13C6823686BB1238965
S11317A04BB1032001212246FEF718FF08B1A073B4
S11317B001E0FF23A3731434EFE7074B00221A6000
S11317C000F0B6FB3046BDE8F08700BF3402FF1FCF
S11317D02C02FF1FF101FF1F3002FF1F1F4B73B5C7
S11317E01C68143454F8143CA4F114069BB314F884
S11317F0053C13F00D0FF4D000F0CEF834F8083C9B
S11318001BB914F8053CDB071ED414F8043CA3B13F
S113181000258DF800508DF8015054F8142C1278DE
S11318208DF802202846694605228DF803508DF86C
S11318300430FEF7EDFF04F8045C14F8053C13F0E3
S11318400A0308BF04F8053C00F0AEF854F8103C55
S113185030469847C5E702B070BD00BF2C02FF1F99
S113186038B5154B1C68236823B393F900308342C1
S11318701ED1B1B9114B1D689DB12B688BB19C422F
S11318800DD100F089F8A3891BB10D4A12681344E5
S11318906B600023E373BDE8384000F085B80C3575
S11318A0EBE74A0702D5E37B1B0703D4E17338BD9A
S11318B01434D8E738BD00BF2C02FF1F3402FF1FC9
S11318C03002FF1FF8B5184B1C680D4617464CB381
S11318D0164B1E6833682BB393F9003083421FD133
S11318E02368E3B19E4218D100F056F8F37B23F04D
S11318F00203F37327721FB9B58125B9657208E035
S1131900002D08BF01250A4B1B681D440123656097
S11319106372BDE8F84000F047B80C34E0E7F8BD66
S11319201436D7E7F8BD00BF3402FF1F2C02FF1F97
S11319303002FF1F154A164B11681B68013110B5A0
S1131940104611600BB30C3353F80C2CEAB113F8A6
S1131950031C0029F7D0046853F8081C8C42F2D108
S1131960D17B8C0706D409075CBF0421D17313F81B
S1131970041C117492892AB153F8081C0A4443F8D0
S1131980082CE0E703F8032CDDE710BD3002FF1F4D
S11319903402FF1F7047000072B6024B1A6801320E
S11319A01A6070478802FF1F034A1368013B1360E3
S11319B003B962B6704700BF8802FF1F08B5064B23
S11319C04FF000721A60FFF7E7FFFFF7B3FFBDE8BF
S11319D00840FFF7E9BF00BF04ED00E0F8B5264E6C
S11319E033680446154653B9244F27F00107244AA7
S11319F0D85B985202333C2BF9D101323260214B2F
S1131A001A781206FBD51A7812F0700F1CBF7022D8
S1131A101A701D4B092C1C7003D0462C01D0072CC6
S1131A2018D11A4B0A0C1A70072C4FEA112203F82A
S1131A30012C03F8021C08D12B46154A53F8041B49
S1131A401160696851601D4604E0462C02D1104AB9
S1131A502B681360FFF7A0FF33680A489847FFF725
S1131A60A3FF462C02D10A4B1B682B60054B187848
S1131A7000F03100F8BD00BFB402FF1FF201FF1FE8
S1131A804802FF1F00000240070002400600024017
S1131A90080002402DE9F84F1E463B4B3B4D1746CC
S1131AA04FF00C091A6809FB00F94A44AA609268CD
S1131AB012F0400F044688469B4605D106F11003F8
S1131AC06B6006F1140304E006F118036B6006F181
S1131AD01C03DFF8B8A0EB60FFF75EFF40467968AF
S1131AE022465346FFF778FA0328804606D0042896
S1131AF019D001282AD1FFF757FF42E0DAF808305D
S1131B00DAF804105A6842F080020A605A6882F0D7
S1131B1040025A609A6882F040029A603B6843F03F
S1131B2080033B6029E024B984233361B3612046F8
S1131B3009E02046FFF726FD154B1B6803EB401315
S1131B4084221A619A610821FFF70EFDDBF8002058
S1131B5002EB090399680F4B0B4029680B432B6078
S1131B6034B9D90004D583F0400141F0800101E08B
S1131B7043F08001396042F80930FFF715FF4FF058
S1131B8000084046BDE8F88F8402FF1F8C02FF1F47
S1131B903802FF1F0800FF032DE9F843B54DB64E88
S1131BA02B7834781C4000F05D8134F0080800F094
S1131BB08D80FFF7F1FEE3074AD533232B70AF4B3B
S1131BC0AF481A7842F002021A70327802F0CF025B
S1131BD03270AC4A1268916821F040019160802112
S1131BE011601A78A84902F0FD021A70A74A00236E
S1131BF0137001220A70A64A1370137113710370D3
S1131C00037103720373037403750376037713710B
S1131C1082F8303082F8343082F838300B7803F0B0
S1131C20040303F0FF07002BF8D19A4B9A4A1B6870
S1131C30DFF870929A6040321A6004203A464B46AC
S1131C403946FFF7C9F9904B89F816700D221A70BE
S1131C50A70719D5914B1A78D00603D5904A9168F5
S1131C60013191601A78510703D58D4A51680131C9
S1131C7051601A78920703D5894A116801311160BD
S1131C8016221A7002232B70E3060BD530232B7017
S1131C903378002143F02003337005200A460B46B5
S1131CA0FFF79AF9A7060BD530232B703378002160
S1131CB003F0DF03337006200A460B46FFF78CF966
S1131CC05FFA88F8FFF770FE85F8008024077FF537
S1131CD065AFDFF8DCE16F4B9EF800609EF80020F2
S1131CE01868664F6F4C360931B212F0080F00EBDA
S1131CF041130FD03A78100700F1B680614A126898
S1131D0001EB410102EB8101A1608A68510640F1B7
S1131D10D180A9E0226802F0805CC4F800C09EF87B
S1131D20002052070BD597F800E01EF0080F03F1CE
S1131D30080207D14CF0400CC4F800C002E097F848
S1131D4000E01A4602F1040CC4F810C0D2F800C036
S1131D50DFF850E1CCF30948A4F814800CF03C04FB
S1131D60042C02D0342C2AD072E0464F386801EBA0
S1131D70410400EB840E8900DEF808E01EF0080F31
S1131D801CBF50F8240000F080083F48415C08BFA5
S1131D904FF08008C90630464CBF01210221FFF7ED
S1131DA079FE3B6853F82420B8F1000F02D022F0EA
S1131DB0800201E042F0800243F824204FE0002436
S1131DC01C619C61DEF80040DFF8B8C014F04008E4
S1131DD011D1DCF8004001EB410904EB8909324CD4
S1131DE0D9F8089009EA0404046044F0C00484604B
S1131DF0CEF8008011E0DCF8004001EB410804EB70
S1131E008804D4F80880284C08EA0404846044F068
S1131E10C00404602548CEF8000001EB4104DCF85E
S1131E20001001EB84014820486030460021FFF790
S1131E3031FE012807D0134B1B6853F8242042F0CD
S1131E40800243F824203B7803F0DF033B7006E074
S1131E5084221A619A6130460821FFF785FB082322
S1131E602B709BE6BDE8F88303F1180262601C3313
S1131E7024E000BF802007408420074094200740CE
S1131E80D02007408402FF1FC0200740982007404D
S1131E90C42007403802FF1F88000800882007403C
S1131EA03C02FF1F8C02FF1F0800FF0340000010CC
S1131EB09020074003F1100262601433E360FFF7DF
S1131EC06BFD3246054B00210320FFF785F8FFF731
S1131ED06BFD034BA27D1A70C1E700BF8C02FF1F8C
S1131EE098200740104B1B684033090143F8202019
S1131EF000F1604303F56443C9B2197020220B4B0F
S1131F0090FBF2F29200034002F16042002B02F5D2
S1131F10614203DA013B63F01F030133012101FA3B
S1131F2003F31360704700BF08ED00E01F0000805A
S1131F30084B094ADA63094A094B13605360094B99
S1131F401A6842F070421A60A3F5516307221A60BE
S1131F50704700BF0000FF1FBD19000014E000E03F
S1131F607F8D5B0020ED00E008B50A4B1B88DB0782
S1131F700AD5FFF711FD084B4AF202621A804BF2B0
S1131F8080421A80FFF710FD044B4FF080621A6004
S1131F9008BD00BF002005400C2005400CF10F4097
S1131FA0134B20F0800210B51C685101000604EBAD
S1131FB0010313D50F48104900680C2404FB0200E8
S1131FC0446824F04004446000201861986111F8CA
S1131FD0223023F0020301F8223010BD625822F0AF
S1131FE0040262509A6822F004029A6010BD00BF95
S1131FF03802FF1F8402FF1FC020074070B5174B33
S113200013F820305A070D4626D5154B1C68154B7E
S11320101B680C2606FB00360B689E6004EB40141C
S1132020FFF7BAFCB3685B0656BF04F1100304F172
S113203018031434186848BF1C3410F0800603D009
S1132040FFF7B2FC022070BD2A6853602B68DC6085
S1132050FFF7AAFC304670BD012070BDC0200740C8
S11320603802FF1F8402FF1F2DE9F74F0F46DFF8E8
S113207028A1454E9046454AD2F800B01AF82720C8
S113208022F00C020AF8272007EB470932684901BD
S11320904FEA89090BEB010402EB090C0025FF2828
S11320A0A5612561A5604BF80150CCF8085042F8B1
S11320B00950374A06D1137803F0CF0313700AF896
S11320C027505DE092F800C04CF0100C82F800C07C
S11320D020F08002012A04D136684E4475604426FB
S11320E005E035684D4408266E600526482500063F
S11320F041D4606800BB984538BF98460C9BB3F840
S113210022C01CF0400F0BD0D3F808C0DCF800301C
S1132110CCF80830ACF8140063604344E3600BE08F
S113212040468DE80600FFF757FA60604046FFF727
S113213053FA9DE80600E060164B4FEA084808EAA7
S113214003031D4345F0800325F04005A36045F0DB
S113215080034BF801300C4B1B684B4446F00800DD
S11321609D600AB9064603E006F0FB0646F0180631
S11321700AF8276004E0002AFAD046F01006F7E7D0
S113218003B0BDE8F08F00BF8402FF1F3802FF1FB9
S1132190842007400000FF03C02007401C4B2DE9AA
S11321A0F3411D681B4B04B205EB441504EB4404D6
S11321B0A4001A68125912F0400F0CBF083500270A
S11321C02A6808BF402712F08006984619D1009665
S11321D06968C2F309420123FEF764FE012812D0A4
S11321E0D8F800301A19304691680B4A0A403A432D
S11321F01F5907F0800742F080013A4329601A51C1
S113220002E0012000E0022002B0BDE8F08100BF3E
S11322103802FF1F8402FF1F0800FF032DE9F84F57
S11322205D4B4E7C1A6842F480721A6003F52033C9
S113223004331A6842F080721A60584A0C461168D6
S113224041F000411160186821F0804140F00070B5
S113225018601160237C0136012BF6B209D1504B72
S11322601A6842F4A0221A605A6C42F009025A64B5
S11322700AE04C4B1A6842F400521A6003F5A0437A
S113228030334FF4E0621A60474B484F00221A6023
S113229003F56C3334331A68102E28BF102642F429
S11322A0802206EB46001A608000FFF795F9404B48
S11322B018603A7842F080023A7098463B781906E2
S11322C0FCD43C4D02232B704FF400717001FFF7D6
S11322D0ABF9394B394A1860000A107059881175E6
S11322E0D9781176364900220A702A7028310A708A
S11322F0AA4689461D4699F800305A07FBD46389DB
S1132300D5F800B013F0040F0CBF08264026304661
S1132310FFF762F9CBF804003046D5F800B0FFF7B8
S11323205BF936042B68CBF80C0046F088029A60FF
S113233046F0C8021A60D8F80030802246F0080639
S11323401A609E600D2389F800301E4BED221A702E
S1132350FF2283F87020BF2283F8782035200421DF
S1132360194AFFF7BFFD638903F004039BB28BB9DD
S1132370164A1370164B8B221A7006221A72012306
S11323808AF800306389DB0704D540233B70114B86
S113239010221A70BDE8F88F00F00140007004406C
S11323A0048004403880044000D000400C210740E1
S11323B08402FF1F942007403802FF1F9C2007401F
S11323C09820074010200740991B00000021074077
S11323D0842007400821074038B520F47F6445185D
S11323E024F00F04092021460022FFF7F7FA30B940
S11323F02B1BB3F5805F03D904F58054F2E7012069
S113240038BD00002DE9F04716460F46234C59B954
S113241023685A0702D10020BDE8F08723F00703A0
S113242023604FF0080804E020F00703236000F065
S11324300708DFF86C90C8F10805B54228BF354697
S113244009EB080A504639462A46FEF7EEF8AA4434
S113245009F108039A452F44C5EB060614D3072057
S11324602168DFF838804A46FFF7B8FA054688B98C
S1132470D8F8003048460833FF210822C8F8003055
S1132480FEF7CAF8A84602E023681D442560002E22
S1132490CFD1C0E70120BDE8F08700BFB002FF1F25
S11324A0A802FF1F034608461946FEF7BEB800F50A
S11324B080204930002A30B54FEA003007DA22F094
S11324C0004222F4EE6222F00402032401E040F20E
S11324D07774012359B10B4206D0056825EA040537
S11324E01543056021EA030104305B00F2E730BDC7
S11324F0014B024A1A60FEE70CED00E00400FA0505
S113250010B5124A12490023891A8B4204D011488B
S1132510185CD0540133F8E70F4B104A9342184625
S113252004D10F4A0F490023891A08E00E490023F9
S1132530891A8B42F5D0C45CD4540133F9E78B4239
S113254003D00020D0540133F9E710BDF001FF1F80
S11325500B02FF1F9038000010040000100400005C
S11325600C02FF1F760DFF1FE436000008B5544B24
S11325701A6842F400621A60524A116821F040015C
S11325801160A2F53422143A4F4911601A6842F4DA
S113259000721A604D4A116821F010011160A2F511
S11325A03522A2F694724A49116002F5352202F5E9
S11325B079624CF22050126812F0100F454A4DF621
S11325C02811108011800BD04FF4C87122F8081C18
S11325D0002122F80A1C40F2D11122F80E1C03E05B
S11325E03D4A4FF4E97111801A6842F400521A60AE
S11325F004204FF4A2724FF08061FFF758FF374B6D
S11326001A6842F080621A605A6942F080625A6124
S1132610A3F51B23FF3BA0221A70A82203F8012C68
S11326202F4B1A78D006FBD41A7802F00C02082A31
S1132630FAD12C4B33221A7058225A70284B1A782C
S11326409106FBD51A785206FCD5274B4FF09272AF
S11326501A60264B28221A70214B1B7803F00C03B6
S11326600C2BF9D1224A234B1360234ADA601A61F6
S11326705A619A611A639A609A63DA62FFF740FFBB
S11326801E4B1A6842F470021A601D4B00221A6035
S11326901C4A6FF07F43136053601B4B1A6805227A
S11326A01A6000F099F819481949FEF777FF19489C
S11326B019490622FEF7E0FFFFF790F8FCE700BF98
S11326C03880044094F00F400301400014F00F40A0
S11326D0030110000E2005400020054000F10F40CA
S11326E00640064004400640448004400040064042
S11326F008ED00E00000FF1F9519000088ED00E0E0
S11327000080004014E000E010E000E0E836000043
S1132710780DFF1F203700001A370000D0F800D0D2
S1132720D0F804F07047000008B548F280031B6835
S1132730013344D048F284031B6801333FD04FF483
S113274000431B6801333AD0002832D0FFF724F944
S11327501B4B00221A601B4A136823F4872323F4BB
S113276080631360184B1A6822F440621A605A6836
S113277022F001025A60154A136823F4003323F04F
S113278006031360124B1A6842F080721A6053F801
S1132790042C22F0004243F8042C0E4A4FF0FF337D
S11327A0136053609360C2F80031C2F80431C2F878
S11327B0083148F28000BDE80840FFF7AFBF08BD0C
S11327C010E000E03480044028800440308004405D
S11327D00470044080E100E0154B1B6813F04002D4
S11327E010B5144B05D000241C802046FFF79CFF35
S11327F001E01A8001241048FEF72EF84FF400433C
S11328001A4613F8011BFF2903D1B3F5203FF7D172
S113281010BDB2F5203F09D242B13CB94FF400409B
S11328204FF40031BDE81040FFF7D6BD10BD00BF26
S113283090F00F40FEFF02205037000000F18002AC
S1132840C37A202B03D090420CD02030F8E7827F4B
S1132850C37F120402EB0362437F02EB0322037F74
S1132860D018704701207047022A70B50C463FD03B
S1132870042A01D06ABB09E00378822B32D11E4BB3
S11328801E4918780D22FDF7C3FF2BE0017821F0D3
S11328908003212B2ED18279C379194D42EA032674
S11328A009062E8026D54178FE2902D0FF290CD0B6
S11328B020E08178F1B9C178E1B9012A1AD1CBB904
S11328C0104B11491878FDF7A3FF082C10D9083CC8
S11328D0A4B20B4B1A885AB10C48002194420170DF
S11328E002D31980032070BD141B1C80062070BD08
S11328F0002070BD042070BDD002FF1FFE01FF1F29
S11329006C0BFF1FD102FF1F00380000DA02FF1F0B
S113291010B51A4A13785C1C1470032B2CD8DFE80A
S113292003F0020E1C25164B1A8801F4706422432E
S113293042EA0132C1F303111980028014E0104B02
S11329400A091C8802F0F00242EA01222243C1F380
S11329500321198020F8022B10BD094B1A8842EA82
S1132960011100221A800180023010BD002313706F
S1132970034BC9B21980018010BD00BFD902FF1FEB
S1132980740DFF1F2DE9F843A34B542404FB0034BA
S11329900D460646002160694FF40072FDF73CFEC7
S11329A0002D5DD0022D00F2828065699B49EB23E6
S11329B02B709023AB70E81CFDF778FF4FF4007385
S11329C03F2223852A76FF22AA76F8226A753C22C2
S11329D00126002302276A704FF004080822EB72D4
S11329E02E74EB742A752F73AF73AF748C4984F80B
S11329F02B2005F13600AE75EB75C4F80880FDF7A1
S1132A0014FE884BE6611E60A368874903F1200227
S1132A10013B236294F82B30E2606B73802385F8CA
S1132A202430292385F8263085F82760032305F10F
S1132A302B0685F829300B2285F8287085F82A8022
S1132A403046FDF7F2FD04F1490031460B22FDF753
S1132A50ECFD552385F8FE31AA2385F8FF31D7E034
S1132A606369022283F8BF210C2283F8C0210B2260
S1132A7083F8C221382283F8C321F82283F8C421C1
S1132A80B82283F8C521012283F8C621FF2283F8E6
S1132A90CA21072283F8CB21552283F8FE21AA22DA
S1132AA083F8CC5183F8CD5183F8FF21B0E0A368BB
S1132AB0AB4211D165695D494FF4007201EB862187
S1132AC02846FDF7B2FD284604F149010B22FDF723
S1132AD0ACFD0823EB729BE00133AB4206D1534BB0
S1132AE0606903EB862101F500718DE0236A9D4244
S1132AF078D3E2691A44954274D29D4204D1606944
S1132B004B490422FDF791FD4A4B53F82670022FDE
S1132B107ED1236A66699D42474D26D14FF4004019
S1132B20FFF78CFE454B28601F70454B04221A802A
S1132B30444B012204361A6017E0636903F50073FD
S1132B409E4265D2DFF8F880B8F8009030464946D6
S1132B50FFF7DEFE94F82B30A7EB4327364B09F141
S1132B6001090646A8F800901F602F6894F82B30DE
S1132B70B7EB432FE1D2334B1A681F46002A47D0E4
S1132B80636903F500739E4242D22C4A2C4C13789D
S1132B901546032B1FD8DFE803F0020B151B218811
S1132BA041F00F01304689B2FFF7B2FEFF2307E080
S1132BB0218841F0FF01304689B2FFF7A9FE0F23B7
S1132BC0038008E0304640F6FF71FFF7A1FE02E003
S1132BD040F6FF7333801C4A00233B60138023803C
S1132BE02B7015E0E268954212D3184B53F8261067
S1132BF0174B9B1A1D44174B803153F8263001EBB9
S1132C004521994204D260694FF40072FDF70DFD2D
S1132C100020BDE8F88300BF180BFF1F2838000010
S1132C2031380000700DFF1F3A3800000E03FF1FFB
S1132C30C0370000E802FF1FF802FF1FD902FF1F80
S1132C40BC02FF1FD402FF1F740DFF1F1009FF1FDA
S1132C50F8FF7F00DC02FF1F2DE9F0411D4D00212C
S1132C6028780A46FDF7D4FD04461B4E336843B367
S1132C70B4F5007F1DD3DFF87080184F98F800007A
S1132C803968FFF77FFE80B998F80020144B287844
S1132C9053F822304FF400725969FDF7B9FD3B68CF
S1132CA0A4F500740133A4B23B603368013B336084
S1132CB0DBE72878402141F27502BDE8F041FDF7D9
S1132CC0C9BB0C2CF5D9287806490D22BDE8F04182
S1132CD0FDF79EBDD002FF1FF002FF1FC802FF1FB9
S1132CE0B802FF1FFE01FF1FD802FF1F38B52F4B8C
S1132CF01B680446E3B92E4821460422FDF7C7FDAC
S1132D00002851D12B4A637B13702B4A52F823209D
S1132D10002B49D1A37B013B0F2B45D894F90C30F0
S1132D20002BE37B14DA232B1DD007D8122B01D1FF
S1132D30072038BD1A2B07D0032B25E0282B12D0EF
S1132D40A82B10D0252B1FE0237C5B0918D01CE096
S1132D501E2BEDD003D8002BEAD01B2B14E02A2B1A
S1132D6001D0AA2B11D1138B03F08803002BDFD1E0
S1132D70124BF0221A7002229A703A221A7304E05B
S1132D80637C03F03F033F2BD2D00D4D211D042261
S1132D90281DFDF74AFC05F1080004F1080104228E
S1132DA0FDF743FC01232B73042038BDCC02FF1F25
S1132DB09C370000D802FF1FB802FF1FFC02FF1F50
S1132DC0FE01FF1F2DE9F04FA94B867B1A78ADB0A9
S1132DD09946002A40F08280A64AA74B4FF400414E
S1132DE011601960A5494FF420300860A4490120FE
S1132DF0086092469B46A34C23780CA95AF82300FA
S1132E000422FFF74FFB0C9B01330DD023789E491E
S1132E105BF8230001EB83218022FFF743FB227838
S1132E209A4B022143F8221094F80080984B5425C1
S1132E3005FB08354FF400632B61A0232B834FF46B
S1132E400077944B6B612F8540460121FFF79AFD73
S1132E50914B43F8285023780133DBB22370002BC5
S1132E60C9D000248D4B0C93012575234FF0020823
S1132E7021460CAA05208DF842308DF83E40ADF86D
S1132E803A50ADF83640ADF834408DF840508DF8E6
S1132E904180FDF7A3FB4023ADF83C30804B89F81B
S1132EA000000C9305204FF4806321460CAAADF872
S1132EB036308DF83F508DF83E80ADF83470ADF863
S1132EC03870FDF78BFB774B187007E09DF8335093
S1132ED0012D0BD039D3752D00F08D8030460CA90F
S1132EE00522FDF7D1FA0028F0D1BAE09DF834307C
S1132EF0CB2B22D007D8CA2BF0D102200021FEF719
S1132F002DF869481EE0CC2B04D0DD2BE6D1FFF769
S1132F10A3FEE3E70024654B65481C6021460422B8
S1132F20FDF77AFB634B64481C60644B21462A46D8
S1132F301C60FDF771FB624804E028460021FEF79F
S1132F400DF86048FDF788FCC8E79DF83430042B81
S1132F50C4D1002001460246FFF754FA00245A4B1C
S1132F60254613F8202CE52AA3F120011BD013F8E1
S1132F70152C0F2A02D012F00A0F14D10DB12034EF
S1132F8001E00D462024202A0ED10323602C8B76E9
S1132F900CD9A4F121035B095A1C203C05EB421512
S1132FA0A4EB431402E000252033DAE7324F36491C
S1132FB038682022FFF726FA38682946203022464E
S1132FC02034FFF71FFA7F2C0AD80021202204A8FE
S1132FD0FDF722FB274B186804A920442022EFE7C1
S1132FE0002001460246FFF70DFA284B02221A6020
S1132FF0FFF77EFA72E730460DF135019DF8342073
S1133000FDF742FA9DF83530FE2B7FF467AF2F4869
S1133010FDF722FC01210A462748FDF7FDFA5DE78A
S1133020224E28783768002F00F0F781DFF88C9063
S1133030DFF89C80D9F80010C1F5007292B24144C7
S1133040FDF722FA33681B1A3360D9F800301844AC
S1133050B0F5007FC9F800003CDA3368002B00F0BB
S1133060E182104D2878FDF721FA0028D8D1F8E242
S1133070D102FF1F1009FF1FC002FF1FDC02FF1F48
S1133080140BFF1FD802FF1F0E03FF1FE802FF1FD0
S1133090180BFF1F1007FF1FB802FF1F692800004D
S11330A0ED2C0000D002FF1F62380000CC02FF1F8D
S11330B0E002FF1FF002FF1FEC02FF1FC402FF1F0C
S11330C046380000523800002E03FF1F6F380000FE
S11330D01409FF1FAB4B1C78AB4B1F687A1C1A609A
S11330E0AA4B4FF0540A0AFB043ADAF80C00029097
S11330F08742C0F00481A64B53F82430012B00F31F
S11331007081A44BA44A53F824E0A44B1B5D002B0C
S113311000F03481012B40F0BD8052F82430002BA4
S113312000F06F81002342F824309D4A02EB842290
S1133130203212F8153C002B6BD00F2BF8D0202B2B
S1133140F6D09907F4D512F8203CE52BF0D012F80C
S11331500C3C12F80B1C1B0443EA016312F8061C16
S11331600B4312F8051C43EA01238849542000FB51
S11331700411C968039103F100510398023900EB6B
S1133180C1018F4203D308318F42C0F03A8103EB6F
S1133190430C4FEADC0C4FEAC41B0BEB0C018148D7
S11331A003F00703013B50F821100193062B05D8C7
S11331B0DFE803F0070A16191C262900C1F30B03E4
S11331C022E0C1F30B331FE0DC440CF1010C754821
S11331D050F82C3003F00F031B0243EA116313E091
S11331E0C1F30B1310E0C1F30B430DE0DC440CF10D
S11331F0010C6C4810F82C301B0143EA117303E0F6
S1133200C1F30B2300E00B0D40F6FF718B42B2D1EA
S11332108EE798F80020644B7B2A0BD193F84A1070
S11332207D2907D1597829B9D97819B95B79002B47
S113323000F0E78098F808105B4B4D2903D1597AC8
S1133240612900F0F58198F8021098F80100564BB6
S1133250090441EA00210A4398F8031042EA016193
S1133260524A0A44B2F5802F80F0CB809A7958797B
S11332701979DB79120442EA00220A4342EA036321
S1133280A3F500434A4A813B934200F2BA80434B80
S113329002221A554748029B4749484A3844C01AF3
S11332A051F824300EEB402080303BB90EF18003FE
S11332B0C31A42F82430012341F8243052F8243050
S11332C0C01A3F4B53F8243098420DD20EF1800EB1
S11332D0704509D3C0F520323349B2F5007F28BFC9
S11332E04FF40072FFF78EF8221DD2B275201E2112
S11332F0FEF7E8FA264B012243F8242071E0DAF8BD
S113330008309F4208D001339F426AD1244800EB21
S1133310842000F5007002E0214800EB842041463F
S1133320DFF86C804FF40072FDF77FF958F8243011
S1133330022B56D11A4800EB842000F1200300F53B
S1133340087204E0203313F8351C20293AD0934244
S113335038D013F8201CE529F4D113F8151C2029C2
S1133360F0D10C4B53F82400154B53F82410091AD0
S1133370FFF732F8002348F82430074A42F8243093
S11333803FE000BFD802FF1FC802FF1F180BFF1F3A
S1133390E802FF1F1009FF1FE002FF1FEC02FF1FDE
S11333A00E03FF1F700BFF1F1409FF1FFFFF00E038
S11333B07F7F0F00FFFF7F00E402FF1FF402FF1F67
S11333C0DC02FF1FFFF73AFA834650B9A64B53F8C5
S11333D02400A64B53F82410091AFEF7FDFF48F801
S11333E024B0DAF820309F4207D1A148A14900EB6C
S11333F044204FF40072FDF718F99F4B002243F864
S113340024200023C9F800303368002B3FF425AE94
S113341075200421FEF724FA23E1984CDFF880821A
S11334200CA98022FDF730F804220DA9201DFDF718
S1133430FCF82878277201216772A772E772277354
S1133440FDF748F89DF83D308D4A88F8003052F871
S113345023709DF83F30032B04D08A488A491222F6
S1133460FDF7E3F89DF93C30002B9DF83F3080F2E6
S11334709880232B6DD00AD8122B2BD01A2B2FD047
S1133480032B40F0CF8028787E491222C8E0282BF5
S113349035D0A82B33D0252B40F0C48000223B69C3
S11334A08DF814208DF815203A8D8DF81720013BE6
S11334B0110A1A0E8DF810201A0C8DF811201A0A10
S11334C08DF816108DF812208DF81330287804A981
S11334D00822A5E09DF840305B0900F09E806AE078
S11334E004226A4904A8FDF7A0F83B8B2878DA0681
S11334F044BF80238DF8123004A9042290E09DF883
S113350042109DF84120090441EA02619DF84420DB
S113351011439DF8432041EA02215D4AA82B116022
S11335205C4B0CD19DF846209DF84510120442EAEC
S113353001629DF848100A439DF8471003E09DF886
S113354046109DF8472042EA01221A60FFF784FBE7
S113355087E59DF847309DF846404F4904A80C2262
S113356043EA0424FDF761F83B8B13F0880F11D074
S11335709B064CBF022301238DF818303B698DF85C
S113358017301A0A8DF816201A0C1B0E8DF8152008
S11335908DF81430287804A90C2C34BF22460C2250
S11335A03EE02A2B0AD0AA2B08D0002B3AD13B8B21
S11335B003F08803B3BB0123237333E09DF8421067
S11335C09DF84120090441EA02619DF84420114319
S11335D09DF8432041EA02212D4AAA2B11600CD107
S11335E09DF846309DF845201B0443EA02639DF88C
S11335F0482013439DF8472003E09DF846209DF89A
S1133600473043EA02233360336898F800101A4ABB
S11336105B02336042F8213023E528781F492422D5
S1133620FDF7F6F8287815490D22FDF7F1F818E5AD
S1133630997A63297FF407AE93F8541041297FF4F3
S113364002AE93F8551054297FF4FDAD93F856104B
S113365054297FF4F8AD93F85730522B7FF4F3AD2F
S1133660CFE62DB0BDE8F08F1009FF1FDC02FF1F6D
S1133670700BFF1F1409FF1FE002FF1FFE01FF1F55
S1133680B802FF1FFC02FF1F7C38000098370000BF
S1133690C802FF1FF002FF1FF43700006437000068
S11336A0D802FF1F1223038000487047CE37000062
S11336B0044B1B681BB12023038003487047184642
S11336C0704700BF140BFF1FA0370000052805D862
S11336D0034B53F8200003780B8070470020704799
S10736E0103800009A
S11336E401000000010000C000000000436C65619B
S11336F46E696E67207377617020696E64696361B3
S1133704746F7220736563746F720D0A0057646F6B
S11337146700757362000157487500001137000093
S11337249915000000000000020001001637000093
S1133734C52D00002500FFFF000004000000000068
S11337440000000000000000000000000D0A4368AF
S113375465636B696E6720466C6173682E2E2E0058
S1133764008000011F000000755461736B657220B2
S1133774555342204D5344204C6F6164657220209C
S1133784312E303010034D007900200050007200B7
S11337946F006400030000005553424309022000F3
S11337A401010480320904000002080650050705DB
S11337B4010240000007058202400000F8FFFF00F8
S11337C40A034D0061006E0075001201100100002F
S11337D400082504FC030001010203010A03430059
S11337E46F006E0066000A033000300030003100C0
S11337F4000000080001F800030002000008034967
S1133804006E007400040309040000000938000079
S1133814C437000088370000EA370000E0370000AE
S1133824013800004D53444F53352E300046415463
S113383431322020200055504C4F41445F444953B9
S11338444B005553422052657365740A0D00555359
S1133854422053757370656E6465640A0D00555394
S11338644220526573756D650A0D00456E756D656C
S113387472617465640D0A00800000000000000A8F
S10D38840000000000000000000036
S1133890FF018021017001780906FCD5704755535A
S10E38A0425300000000000000000084
S9030410E8
